{
  "address": "0x3Aa5ebB10DC797CAC828524e59A333d0A371443c",
  "abi": [
    {
      "inputs": [
        {
          "internalType": "contract ISettUpgradeable",
          "name": "_sett",
          "type": "address"
        },
        {
          "internalType": "contract IERC20",
          "name": "_badger",
          "type": "address"
        }
      ],
      "stateMutability": "nonpayable",
      "type": "constructor"
    },
    {
      "inputs": [],
      "name": "badger",
      "outputs": [
        {
          "internalType": "contract IERC20",
          "name": "",
          "type": "address"
        }
      ],
      "stateMutability": "view",
      "type": "function"
    },
    {
      "inputs": [
        {
          "internalType": "address",
          "name": "addr",
          "type": "address"
        }
      ],
      "name": "balanceOf",
      "outputs": [
        {
          "internalType": "uint256",
          "name": "",
          "type": "uint256"
        }
      ],
      "stateMutability": "view",
      "type": "function"
    },
    {
      "inputs": [
        {
          "internalType": "address",
          "name": "addr",
          "type": "address"
        }
      ],
      "name": "balanceOfToken",
      "outputs": [
        {
          "internalType": "uint256",
          "name": "",
          "type": "uint256"
        }
      ],
      "stateMutability": "view",
      "type": "function"
    },
    {
      "inputs": [],
      "name": "depositToken",
      "outputs": [
        {
          "internalType": "address",
          "name": "",
          "type": "address"
        }
      ],
      "stateMutability": "view",
      "type": "function"
    },
    {
      "inputs": [
        {
          "internalType": "uint256",
          "name": "redeemAmount",
          "type": "uint256"
        }
      ],
      "name": "redeemToken",
      "outputs": [
        {
          "internalType": "uint256",
          "name": "",
          "type": "uint256"
        }
      ],
      "stateMutability": "nonpayable",
      "type": "function"
    },
    {
      "inputs": [],
      "name": "sett",
      "outputs": [
        {
          "internalType": "contract ISettUpgradeable",
          "name": "",
          "type": "address"
        }
      ],
      "stateMutability": "view",
      "type": "function"
    },
    {
      "inputs": [
        {
          "internalType": "uint256",
          "name": "amount",
          "type": "uint256"
        },
        {
          "internalType": "address",
          "name": "to",
          "type": "address"
        }
      ],
      "name": "supplyTokenTo",
      "outputs": [],
      "stateMutability": "nonpayable",
      "type": "function"
    }
  ],
  "transactionHash": "0x4f00e4ed221ea075746a0b9ca7037a9956db6a123ed23bbb1f53c284d474f24a",
  "args": [
    "0x19D97D8fA813EE2f51aD4B4e04EA08bAf4DFfC28",
    "0x3472A5A71965499acd81997a54BBA8D852C6E53d"
  ],
  "solcInputHash": "0ebbaba445dbeb9acf8c14f0841a96d1",
  "bytecode": "0x60c060405234801561001057600080fd5b506040516113743803806113748339818101604052604081101561003357600080fd5b5080516020909101516001600160601b0319606092831b8116608052911b1660a05260805160601c60a05160601c6112a16100d360003980610354528061050b52806105cf5280610658528061068d52806108e75280610ab65250806101645280610207528061029752806103ea528061044e528061062952806106af52806106d8528061079352806107f7528061090e52806109d752506112a16000f3fe608060405234801561001057600080fd5b506004361061007d5760003560e01c806387a6eeef1161005b57806387a6eeef146100fb578063aff0ba9114610129578063b99152d014610131578063c89039c5146101575761007d565b8063013054c21461008257806370a08231146100b1578063857d1823146100d7575b600080fd5b61009f6004803603602081101561009857600080fd5b503561015f565b60408051918252519081900360200190f35b61009f600480360360208110156100c757600080fd5b50356001600160a01b031661060c565b6100df610627565b604080516001600160a01b039092168252519081900360200190f35b6101276004803603604081101561011157600080fd5b50803590602001356001600160a01b031661064b565b005b6100df6108e5565b61009f6004803603602081101561014757600080fd5b50356001600160a01b0316610909565b6100df610ab4565b6000807f00000000000000000000000000000000000000000000000000000000000000006001600160a01b03166318160ddd6040518163ffffffff1660e01b815260040160206040518083038186803b1580156101bb57600080fd5b505afa1580156101cf573d6000803e3d6000fd5b505050506040513d60208110156101e557600080fd5b5051604080516316d3df1560e31b815290519192506000916001600160a01b037f0000000000000000000000000000000000000000000000000000000000000000169163b69ef8a8916004808301926020929190829003018186803b15801561024d57600080fd5b505afa158015610261573d6000803e3d6000fd5b505050506040513d602081101561027757600080fd5b5051905060006102918261028b8786610ad8565b90610b3a565b905060007f00000000000000000000000000000000000000000000000000000000000000006001600160a01b03166370a08231306040518263ffffffff1660e01b815260040180826001600160a01b0316815260200191505060206040518083038186803b15801561030257600080fd5b505afa158015610316573d6000803e3d6000fd5b505050506040513d602081101561032c57600080fd5b5051604080516370a0823160e01b815230600482015290519192506000916001600160a01b037f000000000000000000000000000000000000000000000000000000000000000016916370a08231916024808301926020929190829003018186803b15801561039a57600080fd5b505afa1580156103ae573d6000803e3d6000fd5b505050506040513d60208110156103c457600080fd5b505160408051632e1a7d4d60e01b81526004810186905290519192506001600160a01b037f00000000000000000000000000000000000000000000000000000000000000001691632e1a7d4d9160248082019260009290919082900301818387803b15801561043257600080fd5b505af1158015610446573d6000803e3d6000fd5b5050505060007f00000000000000000000000000000000000000000000000000000000000000006001600160a01b03166370a08231306040518263ffffffff1660e01b815260040180826001600160a01b0316815260200191505060206040518083038186803b1580156104b957600080fd5b505afa1580156104cd573d6000803e3d6000fd5b505050506040513d60208110156104e357600080fd5b5051604080516370a0823160e01b815230600482015290519192506000916001600160a01b037f000000000000000000000000000000000000000000000000000000000000000016916370a08231916024808301926020929190829003018186803b15801561055157600080fd5b505afa158015610565573d6000803e3d6000fd5b505050506040513d602081101561057b57600080fd5b50519050600061058b8584610ba1565b905060006105998386610ba1565b336000908152602081905260409020549091506105b69083610ba1565b336000818152602081905260409020919091556105fe907f00000000000000000000000000000000000000000000000000000000000000006001600160a01b03169083610bfe565b9a9950505050505050505050565b6001600160a01b031660009081526020819052604090205490565b7f000000000000000000000000000000000000000000000000000000000000000081565b6106806001600160a01b037f000000000000000000000000000000000000000000000000000000000000000016333085610c55565b6106d46001600160a01b037f0000000000000000000000000000000000000000000000000000000000000000167f000000000000000000000000000000000000000000000000000000000000000084610cb5565b60007f00000000000000000000000000000000000000000000000000000000000000006001600160a01b03166370a08231306040518263ffffffff1660e01b815260040180826001600160a01b0316815260200191505060206040518083038186803b15801561074357600080fd5b505afa158015610757573d6000803e3d6000fd5b505050506040513d602081101561076d57600080fd5b50516040805163b6b55f2560e01b81526004810186905290519192506001600160a01b037f0000000000000000000000000000000000000000000000000000000000000000169163b6b55f259160248082019260009290919082900301818387803b1580156107db57600080fd5b505af11580156107ef573d6000803e3d6000fd5b5050505060007f00000000000000000000000000000000000000000000000000000000000000006001600160a01b03166370a08231306040518263ffffffff1660e01b815260040180826001600160a01b0316815260200191505060206040518083038186803b15801561086257600080fd5b505afa158015610876573d6000803e3d6000fd5b505050506040513d602081101561088c57600080fd5b50519050600061089c8284610ba1565b6001600160a01b0385166000908152602081905260409020549091506108c29082610dc8565b6001600160a01b0390941660009081526020819052604090209390935550505050565b7f000000000000000000000000000000000000000000000000000000000000000081565b6000807f00000000000000000000000000000000000000000000000000000000000000006001600160a01b03166370a08231306040518263ffffffff1660e01b815260040180826001600160a01b0316815260200191505060206040518083038186803b15801561097957600080fd5b505afa15801561098d573d6000803e3d6000fd5b505050506040513d60208110156109a357600080fd5b505160408051631df1ee3f60e21b81529051919250600091610a5191670de0b6b3a76400009161028b916001600160a01b037f000000000000000000000000000000000000000000000000000000000000000016916377c7b8fc91600480820192602092909190829003018186803b158015610a1e57600080fd5b505afa158015610a32573d6000803e3d6000fd5b505050506040513d6020811015610a4857600080fd5b50518590610ad8565b9050610a836040518060400160405280600e81526020016d4261646765722062616c616e636560901b81525082610e22565b6001600160a01b038416600090815260208190526040902054610aac90839061028b9084610ad8565b949350505050565b7f000000000000000000000000000000000000000000000000000000000000000090565b600082610ae757506000610b34565b82820282848281610af457fe5b0414610b315760405162461bcd60e51b81526004018080602001828103825260218152602001806111eb6021913960400191505060405180910390fd5b90505b92915050565b6000808211610b90576040805162461bcd60e51b815260206004820152601a60248201527f536166654d6174683a206469766973696f6e206279207a65726f000000000000604482015290519081900360640190fd5b818381610b9957fe5b049392505050565b600082821115610bf8576040805162461bcd60e51b815260206004820152601e60248201527f536166654d6174683a207375627472616374696f6e206f766572666c6f770000604482015290519081900360640190fd5b50900390565b604080516001600160a01b038416602482015260448082018490528251808303909101815260649091019091526020810180516001600160e01b031663a9059cbb60e01b179052610c50908490610ed4565b505050565b604080516001600160a01b0380861660248301528416604482015260648082018490528251808303909101815260849091019091526020810180516001600160e01b03166323b872dd60e01b179052610caf908590610ed4565b50505050565b801580610d3b575060408051636eb1769f60e11b81523060048201526001600160a01b03848116602483015291519185169163dd62ed3e91604480820192602092909190829003018186803b158015610d0d57600080fd5b505afa158015610d21573d6000803e3d6000fd5b505050506040513d6020811015610d3757600080fd5b5051155b610d765760405162461bcd60e51b81526004018080602001828103825260368152602001806112366036913960400191505060405180910390fd5b604080516001600160a01b038416602482015260448082018490528251808303909101815260649091019091526020810180516001600160e01b031663095ea7b360e01b179052610c50908490610ed4565b600082820183811015610b31576040805162461bcd60e51b815260206004820152601b60248201527f536166654d6174683a206164646974696f6e206f766572666c6f770000000000604482015290519081900360640190fd5b610ed082826040516024018080602001838152602001828103825284818151815260200191508051906020019080838360005b83811015610e6d578181015183820152602001610e55565b50505050905090810190601f168015610e9a5780820380516001836020036101000a031916815260200191505b5060408051601f198184030181529190526020810180516001600160e01b03166309710a9d60e41b1790529350610f8592505050565b5050565b6000610f29826040518060400160405280602081526020017f5361666545524332303a206c6f772d6c6576656c2063616c6c206661696c6564815250856001600160a01b0316610fa69092919063ffffffff16565b805190915015610c5057808060200190516020811015610f4857600080fd5b5051610c505760405162461bcd60e51b815260040180806020018281038252602a81526020018061120c602a913960400191505060405180910390fd5b80516a636f6e736f6c652e6c6f67602083016000808483855afa5050505050565b6060610fb58484600085610fbf565b90505b9392505050565b6060824710156110005760405162461bcd60e51b81526004018080602001828103825260268152602001806111c56026913960400191505060405180910390fd5b6110098561111a565b61105a576040805162461bcd60e51b815260206004820152601d60248201527f416464726573733a2063616c6c20746f206e6f6e2d636f6e7472616374000000604482015290519081900360640190fd5b600080866001600160a01b031685876040518082805190602001908083835b602083106110985780518252601f199092019160209182019101611079565b6001836020036101000a03801982511681845116808217855250505050505090500191505060006040518083038185875af1925050503d80600081146110fa576040519150601f19603f3d011682016040523d82523d6000602084013e6110ff565b606091505b509150915061110f828286611120565b979650505050505050565b3b151590565b6060831561112f575081610fb8565b82511561113f5782518084602001fd5b8160405162461bcd60e51b81526004018080602001828103825283818151815260200191508051906020019080838360005b83811015611189578181015183820152602001611171565b50505050905090810190601f1680156111b65780820380516001836020036101000a031916815260200191505b509250505060405180910390fdfe416464726573733a20696e73756666696369656e742062616c616e636520666f722063616c6c536166654d6174683a206d756c7469706c69636174696f6e206f766572666c6f775361666545524332303a204552433230206f7065726174696f6e20646964206e6f7420737563636565645361666545524332303a20617070726f76652066726f6d206e6f6e2d7a65726f20746f206e6f6e2d7a65726f20616c6c6f77616e6365a2646970667358221220cc1ff8f040cca716793cf8727b7c22ee71429d97e6803d2d09c54ed43637565164736f6c63430007060033",
  "devdoc": {
    "kind": "dev",
    "methods": {
      "balanceOfToken(address)": {
        "returns": {
          "_0": "The underlying balance of asset tokens"
        }
      },
      "depositToken()": {
        "returns": {
          "_0": "The ERC20 asset token"
        }
      },
      "redeemToken(uint256)": {
        "params": {
          "redeemAmount": "The amount of yield-bearing tokens to be redeemed (ie. badger amount)"
        },
        "returns": {
          "_0": "The actual amount of tokens that were redeemed."
        }
      },
      "supplyTokenTo(uint256,address)": {
        "params": {
          "amount": "The amount of asset tokens to be supplied (ie. badger amount)"
        }
      }
    },
    "stateVariables": {
      "badger": {
        "details": "ref to badger contract."
      },
      "balances": {
        "details": "bBadger token balances"
      },
      "sett": {
        "details": "ref to badger sett (aka Vault)"
      }
    },
    "version": 1
  },
  "userdoc": {
    "kind": "user",
    "methods": {
      "balanceOfToken(address)": {
        "notice": "Returns the total balance (in asset tokens).  This includes the deposits and interest."
      },
      "depositToken()": {
        "notice": "Returns the ERC20 asset token used for deposits."
      },
      "redeemToken(uint256)": {
        "notice": "Redeems asset tokens from the yield source."
      },
      "supplyTokenTo(uint256,address)": {
        "notice": "Supplies asset tokens to the yield source."
      }
    },
    "version": 1
  },
  "storageLayout": {
    "storage": [
      {
        "astId": 6005,
        "contract": "contracts/BadgerYieldSource.sol:BadgerYieldSource",
        "label": "balances",
        "offset": 0,
        "slot": "0",
        "type": "t_mapping(t_address,t_uint256)"
      }
    ],
    "types": {
      "t_address": {
        "encoding": "inplace",
        "label": "address",
        "numberOfBytes": "20"
      },
      "t_mapping(t_address,t_uint256)": {
        "encoding": "mapping",
        "key": "t_address",
        "label": "mapping(address => uint256)",
        "numberOfBytes": "32",
        "value": "t_uint256"
      },
      "t_uint256": {
        "encoding": "inplace",
        "label": "uint256",
        "numberOfBytes": "32"
      }
    }
  }
}